:100000000C942A000C943C000C943C000C943C0092
:100010000C943C000C943C000C941D020C94CF01F9
:100020000C94F6010C94A8010C943C000C943C0038
:100030000C943C000C943C000C943C000C943C0050
:100040000C943C000C943C000C943C000C943C0040
:100050000C943C0011241FBECFE5D8E0DEBFCDBF1D
:1000600020E0A0E6B0E001C01D92A836B207E1F79B
:100070000E9451010C9444020C940000813001F163
:1000800030F08230D1F1833009F450C0089541300E
:1000900059F42AB381E090E002C0880F991F6A9555
:1000A000E2F7822B8ABB08952AB381E090E002C078
:1000B000880F991F6A95E2F7809582238ABB08957D
:1000C000413069F4E0E6F0E0208181E090E002C098
:1000D000880F991F6A95E2F7822B80830895E0E6E6
:1000E000F0E0208181E090E002C0880F991F6A95BE
:1000F000E2F78095822380830895413059F424B338
:1001000081E090E002C0880F991F6A95E2F7822B88
:1001100084BB089524B381E090E002C0880F991F4A
:100120006A95E2F78095822384BB0895413059F4A3
:1001300021B381E090E002C0880F991F6A95E2F731
:10014000822B81BB089521B381E090E002C0880F2B
:10015000991F6A95E2F78095822381BB08958130CB
:1001600001F130F08230B1F1833009F44CC00895D0
:1001700041110CC02BB381E090E002C0880F991FA1
:100180006A95E2F7809582238BBB08952BB381E0BB
:1001900090E002C0880F991F6A95E2F7822B8BBB13
:1001A000089541110CC028B381E090E002C0880F8F
:1001B000991F6A95E2F78095822388BB089528B33A
:1001C00081E090E002C0880F991F6A95E2F7822BC8
:1001D00088BB089541110CC025B381E090E002C0B6
:1001E000880F991F6A95E2F78095822385BB089551
:1001F00025B381E090E002C0880F991F6A95E2F76D
:10020000822B85BB089541110CC022B381E090E0A0
:1002100002C0880F991F6A95E2F78095822382BBFE
:10022000089522B381E090E002C0880F991F6A957B
:10023000E2F7822B82BB08958FB780688FBF089545
:1002400041E060E080E00E943E0041E061E080E04B
:100250000E943E0041E060E080E00E94AF002FE796
:1002600084E89EE1215080409040E1F700C000000A
:1002700040E060E080E00E94AF0041E061E080E0AB
:100280000E94AF002FE784E89EE12150804090401B
:10029000E1F700C0000040E061E080E00E94AF00B4
:1002A000089580E291E00E94A3010E941C010E9437
:1002B0005F0188EE0E949B010E949F01FFCF8FB5D6
:1002C0008E7F8FBD8FB58D7F8FBD8EB5877F8EBDA5
:1002D0008EB58F7E8EBD8FB58F7B8FBD8FB58F779F
:1002E0008FBD8EB581608EBD8EB58D7F8EBD8EB576
:1002F00084608EBD89B78F7D89BF89B78F7E89BFA6
:1003000089B7877F89BF89B78B7F89BF88B78062AC
:1003100088BF88B7806188BF88B7886088BF88B782
:10032000846088BF1DBC1CBC1BBC1ABC19BC18BC9B
:1003300017BC16BC089590E09DBD8CBD089589B78B
:10034000846089BF08959093610080936000089550
:100350001F920F920FB60F9211242F933F934F933A
:100360005F936F937F938F939F93AF93BF93EF931D
:10037000FF93E0916000F09161000995FF91EF918A
:10038000BF91AF919F918F917F916F915F914F91AD
:100390003F912F910F900FBE0F901F9018951F92B5
:1003A0000F920FB60F9211242F933F934F935F93A9
:1003B0006F937F938F939F93AF93BF93EF93FF932D
:1003C000E0916200F09163000995FF91EF91BF9178
:1003D000AF919F918F917F916F915F914F913F91DD
:1003E0002F910F900FBE0F901F9018951F920F9294
:1003F0000FB60F9211242F933F934F935F936F93F8
:100400007F938F939F93AF93BF93EF93FF93E0916D
:100410006600F09167000995FF91EF91BF91AF9150
:100420009F918F917F916F915F914F913F912F910C
:100430000F900FBE0F901F9018951F920F920FB63E
:100440000F9211242F933F934F935F936F937F935A
:100450008F939F93AF93BF93EF93FF93E0916400CB
:10046000F09165000995FF91EF91BF91AF919F9138
:100470008F917F916F915F914F913F912F910F904D
:0C0480000FBE0F901F901895F894FFCF4E
:00000001FF
