S00D000054696D65722E7372656316
S11300000C942A000C94AF000C94D6000C94FD00C0
S11300100C943C000C943C000C943C000C943C006C
S11300200C943C000C943C000C9487010C946001EB
S11300300C943C000C943C000C943C000C943C004C
S11300400C943C000C943C000C943C000C943C003C
S11300500C943C0011241FBECFE5D8E0DEBFCDBF19
S113006020E0A0E6B0E001C01D92AA36B207E1F795
S11300700E9424010C94AE010C940000813001F123
S113008030F08230D1F1833009F450C0089541300A
S113009059F42AB381E090E002C0880F991F6A9551
S11300A0E2F7822B8ABB08952AB381E090E002C074
S11300B0880F991F6A95E2F7809582238ABB089579
S11300C0413069F4E0E6F0E0208181E090E002C094
S11300D0880F991F6A95E2F7822B80830895E0E6E2
S11300E0F0E0208181E090E002C0880F991F6A95BA
S11300F0E2F78095822380830895413059F424B334
S113010081E090E002C0880F991F6A95E2F7822B84
S113011084BB089524B381E090E002C0880F991F46
S11301206A95E2F78095822384BB0895413059F49F
S113013021B381E090E002C0880F991F6A95E2F72D
S1130140822B81BB089521B381E090E002C0880F27
S1130150991F6A95E2F78095822381BB08951F92C7
S11301600F920FB60F9211242F933F934F935F93E7
S11301706F937F938F939F93AF93BF93EF93FF936B
S1130180E0916400F09165000995FF91EF91BF91B2
S1130190AF919F918F917F916F915F914F913F911B
S11301A02F910F900FBE0F901F9018951F920F92D2
S11301B00FB60F9211242F933F934F935F936F9336
S11301C07F938F939F93AF93BF93EF93FF93E091AC
S11301D06200F09163000995FF91EF91BF91AF9197
S11301E09F918F917F916F915F914F913F912F914B
S11301F00F900FBE0F901F9018951F920F920FB67D
S11302000F9211242F933F934F935F936F937F9398
S11302108F939F93AF93BF93EF93FF93E09160000D
S1130220F09161000995FF91EF91BF91AF919F917A
S11302308F917F916F915F914F913F912F910F908B
S11302400FBE0F901F9018950E943A0141E063E0A1
S113025081E00E943E00C0E00AC08C2F0E945E0133
S11302608FE39CE90197F1F700C00000CF5FCF3F17
S1130270A1F7F1CF83B7806483BF83B7877F83BF40
S113028083B7816083BF83B7826083BF83B78B7F6B
S113029083BF83B78F7E83BF83B7806283BF89B7F1
S11302A08E7F89BF89B78D7F89BF88B7816088BFFA
S11302B088B7826088BF12BE1CBE08958CBF0895A3
S11302C01F920F920FB60F9211242F933F934F93C7
S11302D05F936F937F938F939F93AF93BF93EF93AA
S11302E0FF93E0916800F09169000995FF91EF9107
S11302F0BF91AF919F918F917F916F915F914F913A
S11303003F912F910F900FBE0F901F9018951F9241
S11303100F920FB60F9211242F933F934F935F9335
S11303206F937F938F939F93AF93BF93EF93FF93B9
S1130330E0916600F09167000995FF91EF91BF91FC
S1130340AF919F918F917F916F915F914F913F9169
S11303502F910F900FBE0F901F901895F894FFCF18
S9030000FC
