:100000000C942A000C9434000C9434000C943400AA
:100010000C9434000C9434000C9434000C94340090
:100020000C9434000C9434000C9434000C94340080
:100030000C9434000C9434000C9434000C94340070
:100040000C9434000C9434000C9434000C94340060
:100050000C94340011241FBECFE5D8E0DEBFCDBF25
:100060000E94A7010C9412020C940000813001F14F
:1000700030F08230D1F1833009F450C0089541301E
:1000800059F42AB381E090E002C0880F991F6A9565
:10009000E2F7822B8ABB08952AB381E090E002C088
:1000A000880F991F6A95E2F7809582238ABB08958D
:1000B000413069F4E0E6F0E0208181E090E002C0A8
:1000C000880F991F6A95E2F7822B80830895E0E6F6
:1000D000F0E0208181E090E002C0880F991F6A95CE
:1000E000E2F78095822380830895413059F424B348
:1000F00081E090E002C0880F991F6A95E2F7822B99
:1001000084BB089524B381E090E002C0880F991F5A
:100110006A95E2F78095822384BB0895413059F4B3
:1001200021B381E090E002C0880F991F6A95E2F741
:10013000822B81BB089521B381E090E002C0880F3B
:10014000991F6A95E2F78095822381BB08958130DB
:1001500001F130F08230B1F1833009F44CC00895E0
:1001600041110CC02BB381E090E002C0880F991FB1
:100170006A95E2F7809582238BBB08952BB381E0CB
:1001800090E002C0880F991F6A95E2F7822B8BBB23
:10019000089541110CC028B381E090E002C0880F9F
:1001A000991F6A95E2F78095822388BB089528B34A
:1001B00081E090E002C0880F991F6A95E2F7822BD8
:1001C00088BB089541110CC025B381E090E002C0C6
:1001D000880F991F6A95E2F78095822385BB089561
:1001E00025B381E090E002C0880F991F6A95E2F77D
:1001F000822B85BB089541110CC022B381E090E0B1
:1002000002C0880F991F6A95E2F78095822382BB0E
:10021000089522B381E090E002C0880F991F6A958B
:10022000E2F7822B82BB0895813089F028F082307A
:10023000C9F0833011F108952BB381E090E002C042
:10024000880F991F6A95E2F782278BBB089528B320
:1002500081E090E002C0880F991F6A95E2F782273B
:1002600088BB089525B381E090E002C0880F991FF4
:100270006A95E2F7822785BB089522B381E090E07A
:1002800002C0880F991F6A95E2F7822782BB089502
:10029000813079F028F08230A9F08330E1F024C079
:1002A00089B390E002C0959587956A95E2F78170D1
:1002B000089586B390E002C0959587956A95E2F718
:1002C0008170089583B390E002C0959587956A95F3
:1002D000E2F78170089580B390E002C0959587950C
:1002E0006A95E2F78170089580E0089541E067E043
:1002F00081E00E94360041E064E080E00E94360028
:1003000041E065E080E00E94360041E066E080E088
:100310000E9436000895813059F028F0823069F04B
:10032000833081F0089567E081E00E941401089510
:1003300064E080E00E941401089565E080E00E947E
:100340001401089566E080E00E94140108950E945F
:1003500076010E94B40181E00E94DD018130D9F76D
:1003600080E00E948B01F7CF40E067E083E00E94CD
:10037000360040E066E083E00E94360040E065E041
:1003800083E00E94360040E063E083E00E94360094
:1003900041E067E083E00E94A70041E066E083E07F
:1003A0000E94A70041E065E083E00E94A70041E0D1
:1003B00063E083E00E94A7000895823089F018F47A
:1003C000813031F025C0833099F08430C9F020C0ED
:1003D00067E083E00E94480181111CC081E008951C
:1003E00066E083E00E944801811116C081E0089513
:1003F00065E083E00E944801811110C081E008950A
:1004000063E083E00E94480181110AC081E0089501
:1004100080E0089580E0089580E0089580E00895E8
:0804200080E00895F894FFCF7D
:00000001FF
