:100000000C942A000C943C000C943C000C943C0092
:100010000C9498010C9471010C943C000C943C00DD
:100020000C943C000C943C000C943C000C943C0060
:100030000C943C000C943C000C943C000C943C0050
:100040000C943C000C943C000C943C000C943C0040
:100050000C943C0011241FBECFE5D8E0DEBFCDBF1D
:1000600020E0A0E6B0E001C01D92A436B207E1F79F
:100070000E9439010C94BF010C940000813001F101
:1000800030F08230D1F1833009F450C0089541300E
:1000900059F42AB381E090E002C0880F991F6A9555
:1000A000E2F7822B8ABB08952AB381E090E002C078
:1000B000880F991F6A95E2F7809582238ABB08957D
:1000C000413069F4E0E6F0E0208181E090E002C098
:1000D000880F991F6A95E2F7822B80830895E0E6E6
:1000E000F0E0208181E090E002C0880F991F6A95BE
:1000F000E2F78095822380830895413059F424B338
:1001000081E090E002C0880F991F6A95E2F7822B88
:1001100084BB089524B381E090E002C0880F991F4A
:100120006A95E2F78095822384BB0895413059F4A3
:1001300021B381E090E002C0880F991F6A95E2F731
:10014000822B81BB089521B381E090E002C0880F2B
:10015000991F6A95E2F78095822381BB08958130CB
:1001600001F130F08230B1F1833009F44CC00895D0
:1001700041110CC02BB381E090E002C0880F991FA1
:100180006A95E2F7809582238BBB08952BB381E0BB
:1001900090E002C0880F991F6A95E2F7822B8BBB13
:1001A000089541110CC028B381E090E002C0880F8F
:1001B000991F6A95E2F78095822388BB089528B33A
:1001C00081E090E002C0880F991F6A95E2F7822BC8
:1001D00088BB089541110CC025B381E090E002C0B6
:1001E000880F991F6A95E2F78095822385BB089551
:1001F00025B381E090E002C0880F991F6A95E2F76D
:10020000822B85BB089541110CC022B381E090E0A0
:1002100002C0880F991F6A95E2F78095822382BBFE
:10022000089522B381E090E002C0880F991F6A957B
:10023000E2F7822B82BB08958FB780688FBF089545
:1002400041E060E080E00E943E0041E060E080E04C
:100250000E94AF002FE986E891E021508040904055
:10026000E1F700C0000040E060E080E00E94AF00E5
:10027000089580E291E00E946C010E9444010E9476
:1002800068010E941C01FFCF85B58F7B85BD85B5B8
:10029000877F85BD85B5816085BD85B58D7F85BD31
:1002A00085B5846085BD85B58F7E85BD85B58F7D1F
:1002B00085BD89B78F7B89BF89B78F7789BF88B79D
:1002C000806488BF88B7806888BF14BC13BC089559
:1002D00089B7806489BF089590936300809362001A
:1002E00008951F920F920FB60F9211242F933F93F0
:1002F0004F935F936F937F938F939F93AF93BF932E
:10030000EF93FF93E0916200F09163000995FF91F4
:10031000EF91BF91AF919F918F917F916F915F917D
:100320004F913F912F910F900FBE0F901F901895F6
:100330001F920F920FB60F9211242F933F934F935A
:100340005F936F937F938F939F93AF93BF93EF933D
:10035000FF93E0916000F09161000995FF91EF91AA
:10036000BF91AF919F918F917F916F915F914F91CD
:100370003F912F910F900FBE0F901F901895F894FA
:02038000FFCFAD
:00000001FF
