:100000000C942A000C9434000C9434000C943400AA
:100010000C9434000C9434000C9434000C94340090
:100020000C9434000C9434000C9434000C94340080
:100030000C9434000C9434000C9434000C94340070
:100040000C9434000C9434000C9434000C94340060
:100050000C94340011241FBECFE5D8E0DEBFCDBF25
:100060000E9429010C9440010C940000813001F1A0
:1000700030F08230D1F1833009F450C0089541301E
:1000800059F42AB381E090E002C0880F991F6A9565
:10009000E2F7822B8ABB08952AB381E090E002C088
:1000A000880F991F6A95E2F7809582238ABB08958D
:1000B000413069F4E0E6F0E0208181E090E002C0A8
:1000C000880F991F6A95E2F7822B80830895E0E6F6
:1000D000F0E0208181E090E002C0880F991F6A95CE
:1000E000E2F78095822380830895413059F424B348
:1000F00081E090E002C0880F991F6A95E2F7822B99
:1001000084BB089524B381E090E002C0880F991F5A
:100110006A95E2F78095822384BB0895413059F4B3
:1001200021B381E090E002C0880F991F6A95E2F741
:10013000822B81BB089521B381E090E002C0880F3B
:10014000991F6A95E2F78095822381BB08958130DB
:1001500001F130F08230B1F1833009F44CC00895E0
:1001600041110CC02BB381E090E002C0880F991FB1
:100170006A95E2F7809582238BBB08952BB381E0CB
:1001800090E002C0880F991F6A95E2F7822B8BBB23
:10019000089541110CC028B381E090E002C0880F9F
:1001A000991F6A95E2F78095822388BB089528B34A
:1001B00081E090E002C0880F991F6A95E2F7822BD8
:1001C00088BB089541110CC025B381E090E002C0C6
:1001D000880F991F6A95E2F78095822385BB089561
:1001E00025B381E090E002C0880F991F6A95E2F77D
:1001F000822B85BB089541110CC022B381E090E0B1
:1002000002C0880F991F6A95E2F78095822382BB0E
:10021000089522B381E090E002C0880F991F6A958B
:10022000E2F7822B82BB0895E199FECF9FBB8EBB84
:100230006DBB8CB384608CBB8CB382608CBB089527
:10024000E199FECF9FBB8EBB8CB381608CBB8DB31D
:1002500008956AE080E190E10E94140180E190E15C
:100260000E942001C82FCA30F1F741E060E080E031
:100270000E94360041E060E080E00E94A700F3CFDA
:04028000F894FFCF20
:00000001FF
